{
    "_format": "hh-sol-artifact-1",
    "contractName": "WavePortal",
    "sourceName": "contracts/WavePortal.sol",
    "abi": [
        {
            "inputs": [],
            "stateMutability": "nonpayable",
            "type": "constructor"
        },
        {
            "inputs": [],
            "name": "getListOfThanks",
            "outputs": [
                {
                    "internalType": "address[]",
                    "name": "",
                    "type": "address[]"
                }
            ],
            "stateMutability": "view",
            "type": "function"
        },
        {
            "inputs": [],
            "name": "getTotalWaves",
            "outputs": [
                {
                    "internalType": "uint256",
                    "name": "",
                    "type": "uint256"
                }
            ],
            "stateMutability": "view",
            "type": "function"
        },
        {
            "inputs": [],
            "name": "sayThanks",
            "outputs": [],
            "stateMutability": "nonpayable",
            "type": "function"
        },
        {
            "inputs": [],
            "name": "wave",
            "outputs": [],
            "stateMutability": "nonpayable",
            "type": "function"
        }
    ],
    "bytecode": "0x608060405234801561001057600080fd5b5061005a6040518060400160405280601b81526020017f7761766520636f6e747261637420737461727465642062792025730000000000815250336100a060201b6102781760201c565b33600160006101000a81548173ffffffffffffffffffffffffffffffffffffffff021916908373ffffffffffffffffffffffffffffffffffffffff160217905550610275565b61013e82826040516024016100b69291906101b3565b6040516020818303038152906040527f319af333000000000000000000000000000000000000000000000000000000007bffffffffffffffffffffffffffffffffffffffffffffffffffffffff19166020820180517bffffffffffffffffffffffffffffffffffffffffffffffffffffffff838183161783525050505061014260201b60201c565b5050565b60008151905060006a636f6e736f6c652e6c6f679050602083016000808483855afa5050505050565b610174816101ff565b82525050565b6000610185826101e3565b61018f81856101ee565b935061019f818560208601610231565b6101a881610264565b840191505092915050565b600060408201905081810360008301526101cd818561017a565b90506101dc602083018461016b565b9392505050565b600081519050919050565b600082825260208201905092915050565b600061020a82610211565b9050919050565b600073ffffffffffffffffffffffffffffffffffffffff82169050919050565b60005b8381101561024f578082015181840152602081019050610234565b8381111561025e576000848401525b50505050565b6000601f19601f8301169050919050565b6106e2806102846000396000f3fe608060405234801561001057600080fd5b506004361061004c5760003560e01c80633090b7e7146100515780636e373b671461006f5780636fe15b44146100795780639a2cdc0814610083575b600080fd5b6100596100a1565b60405161006691906104b5565b60405180910390f35b61007761012f565b005b6100816101d3565b005b61008b61022d565b6040516100989190610537565b60405180910390f35b6060600280548060200260200160405190810160405280929190818152602001828054801561012557602002820191906000526020600020905b8160009054906101000a900473ffffffffffffffffffffffffffffffffffffffff1673ffffffffffffffffffffffffffffffffffffffff16815260200190600101908083116100db575b5050505050905090565b61016e6040518060400160405280600f81526020017f25732073616964207468616e6b7321000000000000000000000000000000000081525033610278565b6002339080600181540180825580915050600190039060005260206000200160009091909190916101000a81548173ffffffffffffffffffffffffffffffffffffffff021916908373ffffffffffffffffffffffffffffffffffffffff160217905550565b60016000808282546101e591906105a7565b9250508190555061022b6040518060400160405280600c81526020017f257320686173207761766564000000000000000000000000000000000000000081525033610278565b565b60006102706040518060400160405280600e81526020017f256420746f74616c207761766573000000000000000000000000000000000000815250600054610314565b600054905090565b610310828260405160240161028e9291906104d7565b6040516020818303038152906040527f319af333000000000000000000000000000000000000000000000000000000007bffffffffffffffffffffffffffffffffffffffffffffffffffffffff19166020820180517bffffffffffffffffffffffffffffffffffffffffffffffffffffffff83818316178352505050506103b0565b5050565b6103ac828260405160240161032a929190610507565b6040516020818303038152906040527f9710a9d0000000000000000000000000000000000000000000000000000000007bffffffffffffffffffffffffffffffffffffffffffffffffffffffff19166020820180517bffffffffffffffffffffffffffffffffffffffffffffffffffffffff83818316178352505050506103b0565b5050565b60008151905060006a636f6e736f6c652e6c6f679050602083016000808483855afa5050505050565b60006103e583836103f1565b60208301905092915050565b6103fa816105fd565b82525050565b610409816105fd565b82525050565b600061041a82610562565b6104248185610585565b935061042f83610552565b8060005b8381101561046057815161044788826103d9565b975061045283610578565b925050600181019050610433565b5085935050505092915050565b60006104788261056d565b6104828185610596565b9350610492818560208601610639565b61049b8161069b565b840191505092915050565b6104af8161062f565b82525050565b600060208201905081810360008301526104cf818461040f565b905092915050565b600060408201905081810360008301526104f1818561046d565b90506105006020830184610400565b9392505050565b60006040820190508181036000830152610521818561046d565b905061053060208301846104a6565b9392505050565b600060208201905061054c60008301846104a6565b92915050565b6000819050602082019050919050565b600081519050919050565b600081519050919050565b6000602082019050919050565b600082825260208201905092915050565b600082825260208201905092915050565b60006105b28261062f565b91506105bd8361062f565b9250827fffffffffffffffffffffffffffffffffffffffffffffffffffffffffffffffff038211156105f2576105f161066c565b5b828201905092915050565b60006106088261060f565b9050919050565b600073ffffffffffffffffffffffffffffffffffffffff82169050919050565b6000819050919050565b60005b8381101561065757808201518184015260208101905061063c565b83811115610666576000848401525b50505050565b7f4e487b7100000000000000000000000000000000000000000000000000000000600052601160045260246000fd5b6000601f19601f830116905091905056fea2646970667358221220166c4a5fe60edd66b305cc628e20b7c748abea5131bae9ca0aee7bad4ee9f21564736f6c63430008040033",
    "linkReferences": {},
    "deployedLinkReferences": {}
}